:100083003F065B4F666D7D077F6F777C395E7971C5
:0B00AD00EF1FAC0670011E4C70F62225
:10000300E4F50975900FE590640F60737FE87E0354
:100013001200ADE590640F6066AF90EF24F56010B9
:1000230024FE601114601324077012E4F508800D98
:10003300750801800875080280037508037590F040
:10004300AF90EF2450601124E0601124F06011247C
:10005300707013850808800E74048006740880028B
:10006300740C2508F508C3E509648094B25010E5C3
:0F00730090B4F00B7FE87E031200AD050980E723
:01008200225B
:0E009300120003E50890008393F4F58080F2DC
:030000000200A15A
:0C00A100787FE4F6D8FD75810902009319
:00000001FF
