:100070003F065B4F666D7D077F6F777C395E7971D8
:0B009800EF1FAC0670011E4C70F6223A
:10000300E4FDEDB40800504D900012F82828730267
:10001300002A02002E02003602003A0200420200C9
:100023004602004E020052C2908002D290C291C298
:10003300928022C2908002D290D291C2928016C244
:10004300908002D290C291D292800AC2908002D252
:1000530090D291D292ED90007093F5807F647E00F0
:0C006300120098E4F5800DED6408709622
:01006F00226E
:0C008000900070E493F58012000380FBF8
:0300000002008C6F
:0C008C00787FE4F6D8FD75810702008043
:00000001FF
